:1054A200125B387B017A0079F178EA123C490001FB
:1054B200C2007D0112510E7B017A01794B78EA120A
:1054C2003C490000E1007D0412510E12000E9001D1
:1054D200C5A3E0FAA3E0F5828A83E4FFFE123D1B36
:1054E2009001C8A3E0FAA3E0F5828A83E4FFFE12EA
:1054F2003D1B900134E06030E4F0900102E0FF7E59
:1055020000900236EEF0A3EFF07B017A0079F1C051
:1055120002FD90013CA3E0FAA3E0F5828A83D00267
:10552200123D1BE4900132F090018EE060C4E4F081
:0655320090018CF080BC2A
:105B3800E4F594F593F596F595F5B2F5B1F592F58A
:065B480091F5CAF5C92227
:0A597F007800EBF208EAF208E9F202
:10598900E4FF7806E2FEEFD39E50297803E2FB0894
:10599900E2FA08E2F98F827583001239CBFE7800AA
:1059A900E2FB08E2FA08E2F98F82758300EE123A07
:0459B900410F80CE4C
:0159BD0022C7
:104FE400E695B0E68DAEE99499E8AFAF00E697A0F8
:104FF400E6898BE68C8700E5BD95E585A5E5A4B13A
:10500400E8B4A500E68C87E7BAB9E5B9B2E68896B4
:10501400E6B7A100E68C87E7BAB9E6B9BFE6889699
:10502400E7B38A00E68C87E7BAB9E8BF87E4B9B189
:1050340000E789B9E5BE81E5A4AAE5B09100E68C54
:1050440087E7BAB9E4B88DE58CB9E9858D00E985BF
:105054008DE5AFB9E5A4B1E8B4A500E588A0E99968
:10506400A4E5A4B1E8B4A500E6B885E7A9BAE5A427
:10507400B1E8B4A500E4BC91E79CA0E5A4B1E8B410
:10508400A500E68C87E7BAB9E5BA93E5B7B2E6BB03
:10509400A100E68C87E7BAB9E99D9EE7A9BA00E6C4
:1050A4008C87E7BAB9E8B685E697B600E68C87E759
:1050B400BAB9E5B7B2E5AD98E59CA800E4BCA0E6B2
:1050C400849FE599A8E587BAE9949900EF01FFFF69
:1050D400FFFF000001000831000003520100083204
:1050E40003FFFF00060100070C000000010100039C
:1050F4001D0100030D01000330010003330100030F
:0A51040036010003350100043400F9
:10582C00A0441101FF4FE402FF4FF103FF4FFB04B3
:10583C00FF500805FF501806FF502807FF50350889
:10584C00FF504209FF505210FF505F11FF506C1275
:10585C00FF50791FFF508622FF509626FF50A3273A
:0C586C00FF50B029FF50C0830E01014B1B
:065B7800EF24FF92C4229D
:0A588F007807EBF208EAF208E9F2EC
:10589900E408F2780AE2FFC394035047780EE2FB6A
:1058A90008E2FA08E2F9C003C002C0017807E2FB86
:1058B90008E2FA08E2F98F827583001239CBFD7884
:1058C9000EE2FB08E2FA08E2F990004B123C8E89DD
:1058D900828A83D001D002D003123D1B780AE204E8
:0358E900F280B09A
:0158EC002299
:105A9C00780BEBF208EAF208E9F27BFF7A5079D046
:105AAC0012588F7BFF7A5079D212588F780BE2FB09
:105ABC0008E2FA08E2F912588F7BFF7A5079D60285
:025ACC00588FF1
:105B6400E4FEEE25E025E02411F8E26F60050EEE78
:035B7400B419EF72
:015B7700220B
:1056CB009001A6E0146036047075780374FFF2083D
:1056DB007450F20874D8F2087408F27B017A0279DC
:1056EB002412597F9001A5E0900229F07B017A02E8
:1056FB007924125A9C9001A67401F08042780EE234
:10570B00FB08E2FA08E2F990001B1239CB64036044
:10571B001A9000431239CB60E4900043E4123A41F3
:10572B0090001B1239CBB402D480D290001A1239DC
:10573B00CBFF70089001A67402F08003125B647FAC
:01574B00005D
:01574C00223A
:10510E0078E6EBF208EAF208E9F278E6E2FB08E26A
:10511E00FA08E2F9ED123A2F78E6E2FB08E2FA0815
:10512E00E2F9900041E4123A41900042E4123A4111
:10513E00900043E4123A41900044E4F5F0123AFA3A
:10514E0078EAE2FC08E2FD08E2FE08E2FF90004782
:10515E00123BF57BFF7A5A79CEC003C002C00178AC
:10516E00E6E2FB08E2FA08E2F9900054123CBE7B3C
:10517E00FF7A5879EDC003C002C00178E6E2FB0861
:10518E00E2FA08E2F990004E123CBE7BFF7A5A79A1
:10519E0067C003C002C00178E6E2FB08E2FA08E24B
:1051AE00F990004B123CBE7BFF7A57794DC003C07D
:1051BE0002C00178E6E2FB08E2FA08E2F99000513B
:1051CE00123CBE7BFF7A5979BEC003C002C0017883
:1051DE00E6E2FB08E2FA08E2F9900057123CBE78CC
:0C51EE00E6E2FB08E2FA08E2F90251FADE
:0A51FA0078EEEBF208EAF208E9F2A1
:10520400900047123C197F007E407DFA7C01123BDE
:1052140063E47B04FAF9F8123B63C3E49FFFE49E62
:1052240090023AF0A3EFF078EEE2FB08E2FA08E22B
:10523400F91239B224FE602A14604414605B24031A
:10524400706F759850438E40538EFE53890F9002B1
:105254003AE0FEA3E0F58BEEF58DC2ABD28ED2AC74
:10526400804F439A10438E0490023AE0FEA3E0F587
:10527400D7EEF5D6438E1053AFFB43AF01803243D4
:10528400AC5090023AE0FEA3E0F5D5EEF5D443D15C
:105294000A53AFDF43AF08801843845090023AE0CA
:1052A400FEA3E0F5D3EEF5D243D1A053AFBF43AF95
:0352B40010D2AF66
:0152B70022D4
:105ACE009000427401123A41900044E4F5F0123A0B
:105ADE00FAAF0590004174011239F8FD7C00E924FB
:0F5AEE0011F9E43AFAE92DF9EC3AFAEF023A2FFE
:1059BE009000421239CB6031900044E475F0011230
:1059CE003AAD900044123A75D3942CE5F094014010
:1059DE00189000437401123A41900044E4F5F0121D
:0A59EE003AFA900042E4123A412216
:105A6700C28C1239B224FE600E14600F1460102429
:105A77000370108D99800C8D9B80088DAD8004AFCD
:105A8700058F859000461239CB70F89000460412B6
:055A97003A41D28C220F
:1058ED00150815081508A808EBF208EAF208E9F200
:1058FD00E5082403F8E2FB08E2FA08E2F91239B2EE
:10590D00FD601FA808E2FB08E2FA08E2F9125A67E7
:10591D00E5082403F80808E22401F218E23400F245
:09592D0080CEE5082406F50822ED
:10574D00150815081508A808EBF208EAF208E9F2A1
:02575D0015082D
:10575F00A808E4F2F2E5082404F8E2FB08E2FA08EC
:10576F00E2F99000411239CBFFA808E2FEC39F5027
:10577F003D08E2FB08E2FA08E2F9C003C002C001EB
:10578F00E5082404F8E2FB08E2FA08E22411F9E440
:10579F003AFAEE7E0029F9EE3AFA1239B2FDD0014B
:0E57AF00D002D003125A67A808E204F280A7C5
:0757BD00E5082407F50822AE
:03002300020026B2
:10002600C0E0C0F0C083C082C0D075D000C000C0A0
:1000360001C002C003C004C005C006C007C28CC20E
:10004600A9309907C299900137E4F030981DC298FB
:100056007B017A0079F1C002900145A3E0FAA3E0A2
:10006600F5828A83D002AD99123D1BD2A9D28CD0DB
:1000760007D006D005D004D003D002D001D000D0DE
:0A008600D0D082D083D0F0D0E03259
:030093000257C44D
:1057C400C0E0C0F0C083C082C0D075D000C000C0AB
:1057D40001C002C003C004C005C006C007E5843090
:1057E400E1085384FD900191E4F0E58430E01E5318
:1057F40084FE7B017A01794BC00290019FA3E0FAF9
:10580400A3E0F5828A83D002AD85123D1BD007D078
:1058140006D005D004D003D002D001D000D0D0D01F
:0858240082D083D0F0D0E03205
:0C5878004901C5FF5B90FF5B96FF5B9C45
:035AFD00123D1B3C
:105B000000009002387421F0A37442F0900239E052
:0C5B100014F070F8900238E014F070F00F
:015B1C002266
:065B7E00EF24FF92C92292
:065B8400EF24FF92B322A2
:065B8A00EF24FF92C82287
:065B9000EF24FF92A122A8
:065B9600EF24FF92A022A3
:065B9C00EF24FF92C0227D
:1059F8009001CE74FFF0A3745BF0A3747EF0900165
:105A0800D474FFF0A3745BF0A37484F09001D17494
:105A1800FFF0A3745BF0A3748AF09001D774FFF0D1
:095A2800A37452F0A374B8F0223B
:105B1D007B017A0179CEC002AD079001D7A3E0FADF
:0B5B2D00A3E0F5828A83D002023D1B3A
:055B4E00E2FE08E2FF89
:105B53007855EEF208EFF2125B1D7855E2FF025B17
:015B63001D24
:08000300C2B4125B1DD2B4224D
:105A31007857EEF208EFF208ECF208EDF208EAF21C
:105A410008EBF27F2A1200037857125B4E785B1243
:105A51005B4E7F2B1200037859125B4E785D125B0F
:065A61004E7F2C02000341
:104B95009001CBA3E0FAA3E0F5828A83E4FF125AE1
:104BA500FD9001CBA3E0FAA3E0F5828A837F011291
:104BB5005AFD9001C5A3E0FAA3E0F5828A837F013F
:104BC5007E00123D1B125B007F11120003125B0079
:104BD5007F36120003E4FF125B1D7F3A1200037F4C
:104BE50005125B1D7FB21200037F0C125B1D7F0C4B
:104BF500125B1DE4FF125B1D7F33125B1D7F3312B9
:104C05005B1D7FB71200037F35125B1D7FBB120052
:104C1500037F35125B1D7FC01200037F2C125B1DC5
:104C25007FC21200037F01125B1D7FC31200037F49
:104C350013125B1D7FC41200037F20125B1D7FC60C
:104C45001200037F0F125B1D7FCA1200037F0F1234
:104C55005B1D7FC81200037F08125B1D7F55120084
:104C6500037F90125B1D7FD01200037FA4125B1D92
:104C75007FA1125B1D7FE01200037FD0125B1DE454
:104C8500FF125B1D7F06125B1D7F09125B1D7F0BEB
:104C9500125B1D7F2A125B1D7F3C125B1D7F551227
:104CA5005B1D7F4B125B1D7F08125B1D7F16125B20
:104CB5001D7F14125B1D7F19125B1D7F20125B1D6A
:104CC5007FE11200037FD0125B1DE4FF125B1D7FA5
:104CD50006125B1D7F09125B1D7F0B125B1D7F2971
:104CE500125B1D7F36125B1D7F54125B1D7F4B12BD
:104CF5005B1D7F0D125B1D7F16125B1D7F14125B02
:104D05001D7F21125B1D7F20125B1D7F2902000381
:0E52B8007862EDF2785FEBF208EAF208E9F2B4
:1052C600123C6E89828A83E4FF123D1BE47863F206
:1052D600785FE2FB08E2FA08E2F9900003123C8EDE
:1052E60089828A83E4FF123D1B7862E2785F30E7A9
:1052F60016E2FB08E2FA08E2F9900006123C8E89F3
:10530600828A837F018014E2FB08E2FA08E2F990C0
:105316000006123C8E89828A83E4FF123D1B785F69
:10532600E2FB08E2FA08E2F9900003123C8E898259
:105336008A837F01123D1B7862E2FF25E0F208E2D4
:1053460004F2E2C394084088785FE2FB08E2FA08B8
:0E535600E2F9123C6E89828A837F01023D1BC0
:100096000000000000000000000000000000040452
:1000A600040404000004000014140A000000000008
:1000B6000000000000000A0A1F0A0A1F0A0A0000C0
:1000C60000040E1505060C14150E0400000012158A
:1000D6000D152E2C2A1200000000040A0A361515EA
:1000E60029160000020201000000000000000000C6
:1000F6001008080404040404080810000204040894
:10010600080808080404020000000004150E0E1575
:100116000400000000000008083E08080000000077
:1001260000000000000000000202010000000000C4
:10013600003F00000000000000000000000000007A
:10014600000200000020101008080404020201004A
:1001560000000E1111111111110E0000000004060D
:1001660004040404040E000000000E111108040229
:10017600011F000000000E11100C1010110E0000DF
:100186000000080C0C0A091F081C000000001F01D3
:10019600010F1110110E000000000C12010D1311B9
:1001A600110E000000001E100808040404040000DC
:1001B60000000E11110E1111110E000000000E119B
:1001C60011191610090600000000000004000000C6
:1001D6000004000000000000000400000004040009
:1001E60000001008040202040810000000000000CD
:1001F6003F003F0000000000000002040810100845
:100206000402000000000E1111080404000400009E
:1002160000001C22292D2D1D221C000000000404B4
:100226000C0A0A1E1233000000000F12120E1212E0
:10023600120F000000001E1101010101110E000045
:1002460000000F1212121212120F000000001F12ED
:100256000A0E0A02121F000000001F120A0E0A02EE
:100266000207000000001C1201013911120C0000E7
:1002760000003312121E12121233000000001F0477
:1002860004040404041F000000003E0808080808CF
:1002960008080907000037120A060A12123700007A
:1002A6000000070202020202223F000000003B1B80
:1002B6001B1B15151535000000003B1216161A1AE1
:1002C6001217000000000E1111111111110E00007D
:1002D60000000F12120E02020207000000000E11AB
:1002E60011111117190E180000000F12120E0A1222
:1002F6001237000000001E1101060810110F000041
:1003060000001F1504040404040E0000000033124C
:1003160012121212120C000000003312120A0A0CFA
:10032600040400000000151515150E0A0A0A00003F
:1003360000001B0A0A04040A0A1B000000001B0A2C
:100346000A0A0404040E000000001F09080404023F
:10035600121F00001C0404040404040404041C000A
:100366000002020404040808081010000E08080819
:100376000808080808080E00040A0000000000002B
:100386000000000000000000000000000000003F28
:100396000204000000000000000000000000000051
:1003A600000C121C123C000000030202020E121284
:1003B600120E000000000000001C1202120C0000C9
:1003C60000181010101C1212123C00000000000051
:1003D600000C121E021C000000182404041E040453
:1003E600041E000000000000003C120C021C221C2F
:1003F60000030202020E121212370000000404006B
:1004060000060404040E000000080800000C08089A
:100416000808080700030202021A0A060A13000067
:100426000007040404040404041F00000000000084
:10043600000F15151515000000000000000F121220
:100446001237000000000000000C1212120C00000F
:1004560000000000000F1212120E0207000000003A
:10046600001C1212121C103800000000001B0602AD
:100476000207000000000000001E020C101E000013
:1004860000000004041E0404041C00000000000018
:10049600001B1212123C000000000000001B0A0A9A
:1004A60004040000000000000015150E0A0A0000F2
:1004B60000000000001B0A040A1B000000000000E8
:1004C600003312120C08040300000000001E08048A
:1004D600041E000018080808080C08080808180078
:1004E6000808080808080808080808080604040494
:1004F60004080404040406001609000000000000B5
:1005060000000000000000000000000000000000E5
:10051600000000000000000808080808080800009D
:100526001818000000486C241200000000000000AB
:10053600000000000000002424247F1212127F1203
:10054600121200000000081C2A2A0A0C1828282A61
:100556002A1C080800000022251515152A5854548F
:10056600542200000000000C1212120A76252911EE
:10057600916E000000060604030000000000000063
:1005860000000000004020101008080808080810A5
:100596001020400000020408081010101010100867
:1005A600080402000000000008086B1C1C6B080809
:1005B6000000000000000000080808087F0808087E
:1005C600080000000000000000000000000000001D
:1005D600060604030000000000000000FE00000004
:1005E6000000000000000000000000000000000005
:1005F6000606000000008040402020101008080475
:1006060004020200000000182442424242424242D2
:1006160024180000000000080E080808080808084A
:10062600083E00000000003C424242202010080420
:10063600427E00000000003C42422018204040421A
:10064600221C0000000000203028242422227E20C4
:10065600207800000000007E0202021A2640404276
:10066600221C0000000000382402021A26424242E0
:10067600241800000000007E222210100808080836
:10068600080800000000003C42424224182442426E
:10069600423C000000000018244242426458404098
:1006A600241C0000000000000000181800000000D4
:1006B60018180000000000000000000800000000FC
:1006C6000008080400000040201008040204081076
:1006D600204000000000000000007F0000007F00B6
:1006E600000000000000000204081020402010084E
:1006F600040200000000003C424246402010100068
:10070600181800000000001C225A555555552D4258
:10071600221C00000000000808181414243C224281
:1007260042E700000000001F2222221E224242420F
:10073600221F00000000007C42420101010101422B
:10074600221C00000000001F224242424242424256
:10075600221F00000000003F4212121E1212024227
:10076600423F00000000003F4212121E1212020217
:10077600020700000000003C222201010171212233
:10078600221C0000000000E7424242427E424242F2
:1007960042E700000000003E0808080808080808AC
:1007A600083E00000000007C101010101010101001
:1007B6001010110F0000007722120A0E0A121222E0
:1007C6002277000000000007020202020202020273
:1007D600427F000000000077363636362A2A2A2A5B
:1007E6002A6B0000000000E346464A4A5252526213
:1007F600624700000000001C224141414141414145
:10080600221C00000000003F424242423E02020219
:10081600020700000000001C2241414141414D53A6
:10082600321C60000000003F4242423E1212222269
:1008360042C700000000007C4242020418204042E9
:10084600423E00000000007F490808080808080822
:10085600081C0000000000E7424242424242424277
:10086600423C0000000000E74242222424141418EF
:10087600080800000000006B4949494955553622D1
:1008860022220000000000E742242418181824241D
:1008960042E7000000000077222214140808080826
:1008A600081C00000000007E2120101008040442ED
:1008B600423F0000007808080808080808080808E9
:1008C6000808780000000202040408080810102036
:1008D60020204040001E1010101010101010101094
:1008E60010101E0000384400000000000000000048
:1008F60000000000000000000000000000000000F2
:10090600000000FF000608000000000000000000D4
:1009160000000000000000000000003C4278444255
:1009260042FC0000000000030202021A2642424274
:10093600261A0000000000000000003844020202EF
:100946004438000000000060404040784442424283
:1009560064D80000000000000000003C427E020255
:10096600423C0000000000F08808087E08080808DD
:10097600083E0000000000000000007C22221C024D
:100986003C42423C000000030202023A4642424216
:1009960042E700000000000C0C00000E08080808E2
:1009A600083E0000000000303000003820202020E3
:1009B6002020221E0000000302020272120A1612F2
:1009C600227700000000000E08080808080808083A
:1009D600083E0000000000000000007F9292929204
:1009E60092B70000000000000000003B4642424271
:1009F60042E70000000000000000003C4242424284
:100A0600423C0000000000000000001B264242425B
:100A1600221E020700000000000000784442424205
:100A2600447840E000000000000000774C04040415
:100A3600041F0000000000000000007C42023C4051
:100A4600423E0000000000000008083E08080808B2
:100A560008300000000000000000006342424242ED
:100A660062DC000000000000000000E742242414BD
:100A76000808000000000000000000EB4949555539
:100A8600222200000000000000000076241818183A
:100A9600246E000000000000000000E74224241439
:100AA60018080807000000000000007E2210080851
:100AB600447E000000C0202020202010202020207E
:100AC6002020C00010101010101010101010101060
:100AD6001010101000060808080808100808080872
:100AE600080806000C32C2000000000000000000EA
:100AF60000000000000000000000000000000000F0
:100B060000000000000000000000000000000000DF
:100B160000000000000000000000000000000000CF
:100B260000000000000000000000000060006000FF
:100B3600600060006000600060004000200020004F
:100B4600200000000000000060006000600000005F
:100B560000000000000000006006600630039801F7
:100B660088004400000000000000000000000000B3
:100B7600000000000000000000000000000000006F
:100B8600000000000000000000000000100210023B
:100B960010021002FE07FE070802080108010801FC
:100BA6000801FE07FE070401040104010401000018
:100BB6000000000000000000000040004000F001BE
:100BC60058034C03CC034C0058007000E000C001F1
:100BD600C00140034C035C034C034801F000400095
:100BE6004000000000000000000000000E010A01A5
:100BF600910091009100510051003A00AE03A0020D
:100C06005004500448044804480484028403000045
:100C160000000000000000000000000038006C002A
:100C26006C006C006C006C002C0098071C011A010B
:100C3600330133016301E300C308C6093C07000022
:100C460000000000000000000C001C001000100056
:100C56000800040000000000000000000000000082
:100C6600000000000000000000000000000000007E
:100C760000000000000000000004000200018000E7
:100C860080004000400020002000200020002000BE
:100C9600200020004000400080008000000100028B
:100CA600000400000000000002000400080010001C
:100CB600100020002000400040004000400040009E
:100CC6004000400020002000100010000800040032
:100CD600020000000000000000000000000000000C
:100CE6004000C0004000460C4E0FD001F0015E0FE0
:100CF600460C4000400040000000000000000000DC
:100D060000000000000000000000000000000000DD
:100D1600000040004000400040004000FE0F400040
:100D260040004000400040000000000000000000BD
:100D360000000000000000000000000000000000AD
:100D4600000000000000000000000000000000009D
:100D560000000000000000000C001C001000100045
:100D66000800040000000000000000000000000071
:100D7600000000000000000000000000FE07000068
:100D8600000000000000000000000000000000005D
:100D9600000000000000000000000000000000004D
:100DA600000000000000000000000000000000003D
:100DB60000000000000000001C001C001C000000D9
:100DC600000000000000000000040006000200030E
:100DD600000100018000800040004000600020000B
:100DE600200010001000080008000C000400060097
:100DF6000200000000000000000000000000F000FB
:100E060098010C030C0306060606060606060606E9
:100E16000606060606060C030C039801F000000001
:100E2600000000000000000000000000000040007C
:100E36007C00600060006000600060006000600090
:100E4600600060006000600060006000FC0300005D
:100E56000000000000000000000000000000F80094
:100E66008401020306030603000300018001C0009B
:100E7600600020001000080204020602FE030000C3
:100E860000000000000000000000000000007800E4
:100E9600C6008601860180018001C00070008001C5
:100EA600000100030003060306038601F8000000A4
:100EB60000000000000000000000000000008001AB
:100EC6008001C001A001A001900188018801840170
:100ED6008201FE0F8001800180018001E007000091
:100EE6000000000000000000000000000000FC03FD
:100EF60004000400040004000400F4008C01040350
:100F0600000300030603060382018401F8000000C3
:100F16000000000000000000000000000000E001EA
:100F260018030C030C0004000600E60116030E0667
:100F360006060606060604060C021803F000000064
:100F46000000000000000000000000000000F8079C
:100F56000C0604020401000100018000800040002C
:100F6600400040006000600060006000600000001B
:100F76000000000000000000000000000000F80172
:100F86000C030606060606060C021C03F000C80142
:100F96000C0306060606060606060C03F00100000C
:100FA6000000000000000000000000000000F0004B
:100FB6000C010C03060206060606060606078C0644
:100FC60078060006000300030C018C01780000007F
:100FD600000000000000000000000000000000000B
:100FE6000000000000000000E000E000E00000005B
:100FF6000000000000000000E000E000E00000004B
:1010060000000000000000000000000000000000DA
:10101600000000000000000060006000000000000A
:1010260000000000000000000000600060004000BA
:101036002000200000000000000000000004000264
:101046000001800040002000100008000400080095
:101056001000200040008000000100020004000093
:10106600000000000000000000000000000000007A
:101076000000000000000000FE0700000000000065
:10108600FE07000000000000000000000000000055
:10109600000000000000000000000000040008003E
:1010A6001000200040008000000100020004000241
:1010B600000180004000200010000800040000002D
:1010C6000000000000000000000000000000E00337
:1010D6001806040C040C0C0C0C0C000780014000D4
:1010E6004000400000000000E000E000E0000000DA
:1010F600000000000000000000000000E0001803EF
:101106000C02CC0564056605A605B604B604B6044D
:10111600B604B602E4010C040C021803F000000049
:101126000000000000000000000000000000600059
:1011360060005000D00090009000880088010801EF
:10114600F801040304030402020202060F0F000062
:101156000000000000000000000000000000FE008B
:101166008C030C030C030C030C038C01FC000C0316
:101176000C020C060C060C060C060C03FE01000005
:101186000000000000000000000000000000E00376
:1011960018030C060C0404040600060006000600EC
:1011A6000600060006040C040C021803F0000000FA
:1011B60000000000000000000000000000007F00AA
:1011C6008C010C030C030C060C060C060C060C0614
:1011D6000C060C060C060C030C038C017F000000A9
:1011E6000000000000000000000000000000FF03F7
:1011F600060306040604060086008600FE00860036
:10120600860086000600060406040602FF030000A8
:101216000000000000000000000000000000FF03C6
:10122600060306040604060086008600FE00860005
:101236008600860006000600060006001F00000065
:101246000000000000000000000000000000F000A8
:1012560018010C020C020402060006000600060035
:10126600C60F060306030C030C031803F000000068
:1012760000000000000000000000000000000F0F4A
:10128600060606060606060606060606FE070606FF
:101296000606060606060606060606060F0F0000E2
:1012A6000000000000000000000000000000FC0339
:1012B6006000600060006000600060006000600028
:1012C600600060006000600060006000FC030000D9
:1012D6000000000000000000000000000000F80709
:1012E600C000C000C000C000C000C000C000C000F8
:1012F600C000C000C000C000C000C000C000C600E2
:1013060066003C0000000000000000000000CF0363
:101316008601C60046002600160036002E006E0026
:101326004600C60086008601060106038F070000F8
:1013360000000000000000000000000000001F0088
:101346000600060006000600060006000600060067
:10135600060006000600060406040602FF03000057
:101366000000000000000000000000000000070769
:10137600860386038E038E034E034E034A035A03E7
:101386005A033A033203320332031203870700007B
:1013960000000000000000000000000000008E0FAA
:1013A6000C021C021C02340234026402640244026F
:1013B600C402840284038403040304031F0200009E
:1013C6000000000000000000000000000000F00027
:1013D60098010C030C020606060606060606060615
:1013E6000606060606060C020C039801F00000002D
:1013F6000000000000000000000000000000FF00E8
:101406000603060606060606060606068603FE000A
:101416000600060006000600060006001F00000083
:101426000000000000000000000000000000F000C6
:1014360098010C030C0206060606060606060606B4
:101446000606060676064C02CC039801F0008007D5
:101456000003000000000000000000000000FF0183
:10146600060306060606060606060603FE004600F0
:10147600C600860086010603060306060F0E000058
:101486000000000000000000000000000000F8025C
:101496000C030602060206000E003C00F800E003FC
:1014A600800300070206020606060C03F001000090
:1014B6000000000000000000000000000000FE0721
:1014C60062046108610860006000600060006000FE
:1014D600600060006000600060006000F8010000CD
:1014E60000000000000000000000000000001E07D1
:1014F6000C020C020C020C020C020C020C020C0276
:101506000C020C020C020C020C021801F000000086
:1015160000000000000000000000000000000F07AF
:101526000602040104010C010C01880088009800E1
:10153600980050005000700030002000200000008D
:101546000000000000000000000000000000F70E90
:10155600620442044604460464026402E402E402AD
:101566009C029C019801980188018800880000006F
:1015760000000000000000000000000000009E07C0
:101586000C01080118019000B00060002000600006
:101596006000D00090008801080104038E07000057
:1015A60000000000000000000000000000000F0F17
:1015B600060404020C0208011801B800B00070000D
:1015C600600060006000600060006000F8010000DC
:1015D6000000000000000000000000000000FC0702
:1015E6000C0206030201800180004000400020003A
:1015F60020001000180008040C040402FE0300007A
:101606000000000000000000E00320002000200091
:1016160020002000200020002000200020002000C4
:1016260020002000200020002000200020002000B4
:10163600E0030000000000000000000004000400B9
:1016460008000800100010001000200020004000D4
:101656004000C0008000800000010001000200027E
:1016660000020004000000007C0040004000400032
:101676004000400040004000400040004000400064
:101686004000400040004000400040004000400054
:101696007C000000000060009000080100000000CF
:1016A6000000000000000000000000000000000034
:1016B6000000000000000000000000000000000024
:1016C6000000000000000000000000000000000014
:1016D6000000000000000000000000000000000004
:1016E60000000000000000000000000000000000F4
:1016F6000000FF0F0000000018006000000000005E
:1017060000000000000000000000000000000000D3
:1017160000000000000000000000000000000000C3
:1017260000000000000000000000000000000000B3
:101736000000000000000000F0010C030C03000391
:10174600E0031C030E03060306038E0B7C0E00004B
:1017560000000000000000000000000008000E006D
:101766000C000C000C000C00CC013C031C060C0603
:101776000C060C060C060C060C021C03E401000009
:101786000000000000000000000000000000000053
:101796000000000000000000F0008C018C018601B2
:1017A60006000600060006020C020C01F00000000E
:1017B6000000000000000000000000000002C0035E
:1017C600000300030003000378038C030C030603E5
:1017D600060306030603060304038C0778010000CC
:1017E60000000000000000000000000000000000F3
:1017F6000000000000000000E001180308020C06CB
:101806000C06FC070C000C0018041802E00100008E
:101816000000000000000000000000000000C003FF
:101826006006300630003000FE0130003000300027
:10183600300030003000300030003000FC01000085
:101846000000000000000000000000000000000092
:101856000000000000000000F007D8068C018C0193
:101866008C019801F8000C00FC00CC03060306036B
:101876008E03F800000000000000000008000E00C3
:101886000C000C000C000C00EC011C030C030C03F8
:101896000C030C030C030C030C030C039E07000043
:1018A60000000000000000000000000000006000D2
:1018B60060000000000040007C00600060006000E6
:1018C600600060006000600060006000FC030000D3
:1018D6000000000000000000000000000000C00141
:1018E600C001000000000001F001800180018001BC
:1018F60080018001800180018001800180018001DA
:10190600CC007C00000000000000000008000E0073
:101916000C000C000C000C008C038C008C004C009E
:101926006C005C008C008C010C010C039E0700000F
:1019360000000000000000000000000040007C00E5
:101946006000600060006000600060006000600091
:10195600600060006000600060006000FC03000042
:101966000000000000000000000000000000000071
:1019760000000000000000003707EE066606660657
:10198600660666066606660666066606FF0F0000BB
:101996000000000000000000000000000000000041
:1019A6000000000000000000EE011C030C030C0305
:1019B6000C030C030C030C030C030C039E07000022
:1019C6000000000000000000000000000000000011
:1019D6000000000000000000F00098010C0306065D
:1019E60006060606060606060C030C03F0000000B3
:1019F60000000000000000000000000000000000E1
:101A06000000000000000000EE011C030C060C069E
:101A16000C060C060C060C060C031C03EC010C0051
:101A26000C003E0000000000000000000000000066
:101A3600000000000000000078028C030C0306037F
:101A4600060306030603060304038C037803000358
:101A56000003C007000000000000000000000000B6
:101A660000000000000000009F035806380618001A
:101A7600180018001800180018001800FF000000D1
:101A86000000000000000000000000000000000050
:101A96000000000000000000F0031C030C020C0212
:101AA6003800F000C003040304038C03FC010000AB
:101AB6000000000000000000000000000000000020
:101AC6002000200030003000FE01300030003000E1
:101AD600300030003000300030023002E0010000FB
:101AE60000000000000000000000000000000000F0
:101AF60000000000000008028E030C030C030C0318
:101B06000C030C030C030C030C039C077801000068
:101B160000000000000000000000000000000000BF
:101B260000000000000000001E070C02080108016A
:101B360018019000B000B0006000600020000000B6
:101B4600000000000000000000000000000000008F
:101B56000000000000000000F70E62044604640264
:101B66006402EC029C0198019801980108000000AB
:101B7600000000000000000000000000000000005F
:101B86000000000000000000BC0718011001B000B2
:101B960060006000E0009000080108039E07000056
:101BA600000000000000000000000000000000002F
:101BB60000000000000000009E070801080108015F
:101BC60090009000B00060006000600020002000DF
:101BD60024001C00000000000000000000000000BF
:101BE6000000000000000000FC018401C400440065
:101BF600600020003000180208020C03FC010000FF
:101C0600000000000000000000038000800080004B
:101C1600800080008000800080004000200040009E
:101C260080008000800080008000800080008000AE
:101C3600000300004000400040004000400040001B
:101C4600400040004000400040004000400040008E
:101C5600400040004000400040004000400040007E
:101C660040004000000000000C00100010001000B2
:101C7600100010001000100010002000400020008E
:101C860010001000100010001000100010001000CE
:101C96000C00000000001C002204C20480030000A7
:101CA600000000000000000000000000000000002E
:101CB600000000000000000000000000000000001E
:101CC600000000000000000000000000000000000E
:101CD60000000000000000000000000000000000FE
:101CE60000000000000000000000000000000000EE
:101CF60000000000000000000000000000000000DE
:101D06000000000000000000000000000000C0010C
:101D1600C001C001C001C001C001C0018000800037
:101D2600800080008000800080000000000000002D
:101D360000008001C003C003800100000000000015
:101D460000000000000000000000E01CE01CF01E87
:101D5600700E380718030801840000000000000018
:101D6600000000000000000000000000000000006D
:101D7600000000000000000000000000000000005D
:101D8600000000000000000000000000000000004D
:101D960020102010201020102010FE7FFE7F10083B
:101DA600100810081008100810081008FE7FFE7FA3
:101DB60008040804080408040804000000000000E1
:101DC600000000000000000000000000000100010B
:101DD600C0076019103118311839183938017001E7
:101DE600E001C0038007000F001D003900311C31DF
:101DF6001C310C310C11180DE00700010001000127
:101E060000000000000000000000000000000000CC
:101E16001C1036186308630C6304630463026302D0
:101E26006301361D9C3780228063406340632063D4
:101E36002063306310221836081C000000000000E2
:101E4600000000000000000000000000000000008C
:101E5600F00098018C018C018C018C018C00CC0067
:101E66007800183E1C083608320863046304C3046D
:101E7600C303834306438E26781C0000000000003F
:101E8600000000000000000000001C003C003C00B8
:101E96003000300010000C000600000000000000BA
:101EA600000000000000000000000000000000002C
:101EB600000000000000000000000000000000001C
:101EC600000000000000000000000040002000109C
:101ED6000008000C00040006000300030003800154
:101EE6008001800180018001800180018001000362
:101EF6000003000300060006000C00080010002086
:101F0600004000000000000000000200040008007D
:101F16001000300020006000C000C000C00080013A
:101F26008001800180018001800180018001C00064
:101F3600C000C0006000600030001000080004000F
:101F46000200000000000000000000000000000089
:101F56000000000000018003800300011C713C7931
:101F6600783DC0070001C007783D3C791C7100012F
:101F760080038003800100000000000000000000D4
:101F8600000000000000000000000000000000004B
:101F96000000000000000001000100010001000136
:101FA60000010001FC7F00010001000100010001A9
:101FB6000001000100000000000000000000000019
:101FC600000000000000000000000000000000000B
:101FD60000000000000000000000000000000000FB
:101FE60000000000000000000000000000000000EB
:101FF600000000001C003C003C00300030001000D7
:102006000C000600000000000000000000000000B8
:1020160000000000000000000000000000000000BA
:1020260000000000FE7F000000000000000000002D
:10203600000000000000000000000000000000009A
:10204600000000000000000000000000000000008A
:10205600000000000000000000000000000000007A
:10206600000000000000000000000000000000006A
:10207600000018003C003C001800000000000000B2
:10208600000000000000000000000040006000208A
:102096000030001000180008000C000400060002C2
:1020A6000003000180018000C000400060002000A5
:1020B60030001000180008000C00040006000200A2
:1020C600000000000000000000000000000000000A
:1020D600C007600C30181830183018200C600C60DF
:1020E6000C600C600C600C600C600C600C601820BE
:1020F600183018303018600CC007000000000000CF
:1021060000000000000000000000000000000000C9
:1021160000018001F80180018001800180018001B9
:1021260080018001800180018001800180018001A1
:10213600800180018001C003F81F0000000000003C
:102146000000000000000000000000000000000089
:10215600E007101C0818043004300C300C30003036
:102166000018000800040002000180004000202042
:10217600102008200430FC1FFC1F00000000000097
:102186000000000000000000000000000000000049
:10219600E003180E0C0C0C180C180C180018000C88
:1021A6000006C003000E00180010003000300C308E
:1021B6000C300C100C18180CE00300000000000096
:1021C6000000000000000000000000000000000009
:1021D600000C000E000E000F800E800E400E600EEA
:1021E600200E100E100E080E040E040EFE7F000EBA
:1021F600000E000E000E000E000EC07F0000000054
:1022060000000000000000000000000000000000C8
:10221600F03FF03F10001000100008000800C8074B
:10222600280C1818081000300030003000300C3030
:102236000C3004180418080CF0030000000000001D
:102246000000000000000000000000000000000088
:10225600800FC010203010301800180008000C0045
:102266008C0F6C183C301C600C600C600C600C60B1
:102276001860182030306018C00700000000000009
:102286000000000000000000000000000000000048
:10229600F83FF83F1C100C08040804040004000270
:1022A6000002000100010001800080008000C000E3
:1022B600C000C000C000C000C00000000000000058
:1022C6000000000000000000000000000000000008
:1022D600E007300C18180C300C300C301C30381855
:1022E6007008E007B007180E0C1C063806300630DA
:1022F600063006300C18180CE00300000000000041
:1023060000000000000000000000000000000000C7
:10231600E00318040C080C180610063006300630C8
:10232600063006380C3C1836F0310030001800181C
:1023360000180C0C0C060C03F00100000000000055
:102346000000000000000000000000000000000087
:1023560000000000000000000000000000008001F6
:10236600C003C00380010000000000000000000060
:1023760000008001C003C0038001000000000000CF
:102386000000000000000000000000000000000047
:102396000000000000000000000000000000C00077
:1023A600C000000000000000000000000000000067
:1023B600000000000000C000C00080008000400057
:1023C60040000000000000000000000000000020A7
:1023D600001000080004000600038001C000600031
:1023E600300018000C00180030006000C0008001AA
:1023F6000003000600040008001000200000000092
:1024060000000000000000000000000000000000C6
:102416000000000000000000000000000000FE7F39
:1024260000000000000000000000FE7F0000000029
:102436000000000000000000000000000000000096
:102446000000000000000000000000000000040082
:102456000800100020006000C00080010003000694
:10246600000C001800300018000C00060003800164
:10247600C0006000200010000800040000000000FA
:102486000000000000000000000000000000C0077F
:102496003018083008600C601C601C601C6000303E
:1024A600001C000600018000800080008000000003
:1024B60000008001C003C00380010000000000008E
:1024C6000000000000000000000000000000000006
:1024D600C0076018103018200C2F8C4D864CC64C47
:1024E600C64C664C66446644662666266615CC1C53
:1024F6000C40082018303018C0070000000000000B
:1025060000000000000000000000000000000001C4
:10251600C001C001C0014001600320032003200365
:102526003006100610061006F80F080C080C080CEA
:102536000C0C0418041806181F7C0000000000008C
:102546000000000000000000000000000000000085
:10255600FE07181C1838183018301830183018189C
:10256600180CF8071818183018201860186018602A
:102576001860186018301818FE0F000000000000E0
:102586000000000000000000000000000000000045
:10259600C0276038103018200C400C40040006009C
:1025A60006000600060006000600060006000C40AF
:1025B6000C400C2018303018C00700000000000046
:1025C6000000000000000000000000000000000005
:1025D600FE03180E181818301830183018601860D6
:1025E6001860186018601860186018601860183055
:1025F600183018101818180EFE030000000000000E
:1026060000000000000000000000000000000000C4
:10261600FE3F1830182018601840180018081808CF
:10262600180CF80F180C18081808180018001800CD
:102636001840184018201830FE3F00000000000027
:102646000000000000000000000000000000000084
:10265600FE7F1870184018C018801800181018103F
:102666001818F81F18181810181018001800180055
:1026760018001800180018007E0000000000000076
:102686000000000000000000000000000000000044
:10269600C013701C101018100C200C20040006002B
:1026A600060006000600060006FC063006300C3062
:1026B6000C30183018303008C00700000000000049
:1026C6000000000000000000000000000000000004
:1026D6003F7E0C180C180C180C180C180C180C183B
:1026E6000C180C18FC1F0C180C180C180C180C18CD
:1026F6000C180C180C180C183F7E00000000000087
:1027060000000000000000000000000000000000C3
:10271600F81F800180018001800180018001800115
:10272600800180018001800180018001800180019B
:102736008001800180018001F81F00000000000078
:102746000000000000000000000000000000000083
:10275600E07F0006000600060006000600060006EA
:102766000006000600060006000600060006000633
:102776000006000600060006000600060E060E030A
:102786008E01FC00000000000000000000000000B8
:102796007E7C1818180818041806180218019801E3
:1027A6009801D801B803380318071806180E180C34
:1027B600181C1818183018307EFC000000000000A5
:1027C6000000000000000000000000000000000003
:1027D6007E001800180018001800180018001800CD
:1027E6001800180018001800180018001800180023
:1027F6001840184018201830FE3F00000000000066
:1028060000000000000000000000000000000000C2
:102816001FF81C381C381C381C3C3434343434340F
:10282600343674326432643264326431C431C43151
:10283600C431C430C43084309FFC00000000000066
:102846000000000000000000000000000000000082
:102856001F7C1C103C103410341074106410E410EB
:10286600C410C41184118413041304170416041E1F
:10287600041C041C041C04181F180000000000009F
:102886000000000000000000000000000000000042
:10289600C003300C181808100C300C3006600660A7
:1028A60006600660066006600660066006600C202C
:1028B6000C3008101818300CC0030000000000008F
:1028C6000000000000000000000000000000000002
:1028D600FE0F181818301860186018601860186015
:1028E60018301818F80F18001800180018001800EB
:1028F60018001800180018007E00000000000000F4
:1029060000000000000000000000000000000000C1
:10291600C003300C18180C100C300C200660066032
:102926000660066006600660066006600660E46192
:102936002C331C321816300EC007004C007C0038B1
:102946000000000000000000000000000000000081
:10295600FE07181C18381830183018301830181898
:10296600180CF80798031803180718061806180E07
:10297600180C180C181C18187E78000000000000AF
:102986000000000000000000000000000000000041
:10299600E027303818300C200C200C000C001800F2
:1029A6007800E003800F001E0038007000600460AD
:1029B6000460086018303818C80F000000000000D6
:1029C6000000000000000000000000000000000001
:1029D600FC3F8C218461824182418001800180011B
:1029E60080018001800180018001800180018001D9
:1029F6008001800180018001E007000000000000E6
:102A060000000000000000000000000000000000C0
:102A16003F7C0C100C100C100C100C100C100C1031
:102A26000C100C100C100C100C100C100C100C10C0
:102A36000C100C1008083804E00300000000000029
:102A46000000000000000000000000000000000080
:102A56003EF8182018201820301030103010301092
:102A6600600860086008E00CC004C004C00480036D
:102A760080038003800300010001000000000000C5
:102A86000000000000000000000000000000000040
:102A9600DFF38661862186218C210C218C238C1301
:102AA6008C138C134C1358125816580E380E380EB9
:102AB600380E300C10041004100400000000000052
:102AC6000000000000000000000000000000000000
:102AD6007E3E180838083004300470026002E001B7
:102AE600C001C00180018003400340072006200684
:102AF600100C100C081808183E7C0000000000009E
:102B060000000000000000000000000000000000BF
:102B16007E7C1C10181018083008300C70046004F5
:102B26006002C002C002C0018001800180018001F4
:102B36008001800180018001E007000000000000A4
:102B4600000000000000000000000000000000007F
:102B5600F83F18180818040C040E000600070003B6
:102B660080038001C001C000E000600070003000FA
:102B7600382018201C100C18FE1F00000000000052
:102B860000000000000000000000C03F40004000C0
:102B9600400040004000400040004000400040002F
:102BA600400040004000400040004000400040001F
:102BB6004000400040004000400040004000C03F50
:102BC60000000000000000000000000000000800F7
:102BD600180018001000300020006000600040005F
:102BE600C000800080018001000100030002000691
:102BF60000060004000C0008001800180010003041
:102C060000200000000000000000FC03000200029B
:102C1600000200020002000200020002000200029E
:102C2600000200020002000200020002000200028E
:102C36000002000200020002000200020002FC0381
:102C4600000000000000000000008007C006200809
:102C5600101000000000000000000000000000004E
:102C6600000000000000000000000000000000005E
:102C7600000000000000000000000000000000004E
:102C8600000000000000000000000000000000003E
:102C9600000000000000000000000000000000002E
:102CA600000000000000000000000000000000001E
:102CB600000000000000000000000000000000000E
:102CC6000000FFFF0000000000007800C0000001C7
:102CD60000000000000000000000000000000000EE
:102CE60000000000000000000000000000000000DE
:102CF60000000000000000000000000000000000CE
:102D060000000000000000000000000000000000BD
:102D16000000000000000000000000000000F003BA
:102D260018060C0C0C0C000C800F700C1C0C0C0CF8
:102D3600060C060C064C0C4FF8380000000000008C
:102D4600000000000000000000000000000010006D
:102D56001E00180018001800180018001800180F98
:102D6600D818383038601860186018601860186015
:102D76001860182038307818C807000000000000D6
:102D8600000000000000000000000000000000003D
:102D96000000000000000000000000000000C00766
:102DA600700C181818180C180C000C000C000C00ED
:102DB6000C20182018103008C00700000000000082
:102DC60000000000000000000000000000000010ED
:102DD600001E001800180018001800180018E01B44
:102DE600301C181818180C180C180C180C180C187D
:102DF6000C180818181C307AE009000000000000C2
:102E060000000000000000000000000000000000BC
:102E16000000000000000000000000000000C007E5
:102E2600300C181808100C300C30FC3F0C000C004D
:102E36000C00182018107018C007000000000000D1
:102E4600000000000000000000000000000000007C
:102E5600003E80C380C0C0C0C000C000C000FC1FD0
:102E6600C000C000C000C000C000C000C000C0005C
:102E7600C000C000C000C000F80F00000000000045
:102E8600000000000000000000000000000000003C
:102E96000000000000000000000000000000C077F5
:102EA600306C10181818181818181018300CF0076D
:102EB60018001800F00FF03F08700C600C600C60F2
:102EC6003838E00F0000000000000000000010008D
:102ED6001E00180018001800180018001800980F97
:102EE600D8183830183018301830183018301830D4
:102EF60018301830183018307EFC00000000000032
:102F060000000000000000000000000000000000BB
:102F16008003800380030000000000000001F80128
:102F26008001800180018001800180018001800193
:102F36008001800180018001F81F00000000000070
:102F4600000000000000000000000000000000007B
:102F56000038003800380000000000000010801F14
:102F6600001800180018001800180018001800189B
:102F76000018001800180018001800180018180C7F
:102F86001806F0030000000000000000000010001A
:102F96001E00180018001800180018001800183E27
:102FA600180C1806180318019801D80138031807D9
:102FB6001806180C181C18187E7C0000000000006B
:102FC60000000000000000000000000000000001FA
:102FD600F80180018001800180018001800180016B
:102FE60080018001800180018001800180018001D3
:102FF6008001800180018001F81F000000000000B0
:1030060000000000000000000000000000000000BA
:103016000000000000000000000000000800EE1C98
:103026009C338C318C318C318C318C318C318C31A0
:103036008C318C318C318C31DE7B0000000000003D
:10304600000000000000000000000000000000007A
:1030560000000000000000000000000010001E0F2D
:10306600D818383018301830183018301830183052
:1030760018301830183018307EFC000000000000B0
:10308600000000000000000000000000000000003A
:103096000000000000000000000000000000C00763
:1030A600701C103018300C600C600C600C600C60EA
:1030B6000C60183018303018C007000000000000FF
:1030C60000000000000000000000000000000000FA
:1030D60000000000000000000000000010009E0F2D
:1030E6005818383018201860186018601860186072
:1030F600186018303830781898071800180018002B
:1031060018007E0000000000000000000000000023
:103116000000000000000000000000000000C023C6
:10312600303C183818300C300C300C300C300C3069
:103136000C3008301838303CE033003000300030B6
:10314600003000FC0000000000000000000000004D
:1031560000000000000000000000000060007E3C4F
:1031660060666061E000E000600060006000600092
:103176006000600060006000FE07000000000000C4
:103186000000000000000000000000000000000039
:103196000000000000000000000000000000E02722
:1031A60030381830182018007000E003800F001C1B
:1031B600043004300C301C18EC0F00000000000036
:1031C60000000000000000000000000000000000F9
:1031D60000000000800080008000C000E000FC1FAE
:1031E600C000C000C000C000C000C000C000C000D9
:1031F600C000C020C0208011000F000000000000A9
:1032060000000000000000000000000000000000B8
:1032160000000000000000000000000010201E3C1E
:103226001830183018301830183018301830183058
:1032360018301830183830F4E01300000000000091
:103246000000000000000000000000000000000078
:1032560000000000000000000000000000007E3CAE
:10326600181818083808300430047002600260022A
:10327600E001C001C001C0008000000000000000A5
:103286000000000000000000000000000000000038
:103296000000000000000000000000000000DFF752
:1032A6008E630C238C238C23981398135816581668
:1032B600700E700E700E2004200400000000000046
:1032C60000000000000000000000000000000000F8
:1032D6000000000000000000000000000000FC3EAE
:1032E60070087004E004C002C00180038003400738
:1032F6006006200C100C18183E7E0000000000002E
:1033060000000000000000000000000000000000B7
:1033160000000000000000000000000000007E7CAD
:103326001818180830083008300460046004C00219
:10333600C002C00280018001800180008000800000
:103346004C003C00000000000000000000000000EF
:103356000000000000000000000000000000FC1F4C
:103366000C0C040E0406000380038001C000E0007C
:103376007020302038301C18FC1F000000000000B0
:1033860000000000000000000000003000080004FB
:103396000004000400040004000400040004000407
:1033A600000400028001000200040004000400047E
:1033B60000040004000400040004000400040008E3
:1033C60000300000000100010001000100010001C1
:1033D60000010001000100010001000100010001DF
:1033E60000010001000100010001000100010001CF
:1033F60000010001000100010001000100010001BF
:10340600000100010000000000000C001000200078
:1034160020002000200020002000200020002000A6
:1034260020004000800140002000200020002000F5
:103436002000200020002000200020002000100096
:103446000C00000000003800C40086400261002223
:10345600001C00000000000000000000000000004A
:103466000000000000000000000000000000000056
:103476000000000000000000000000000000000046
:1034860000000000CBBCFE0322022202FE03220241
:103496002202FE0320004A024A040905F001C2F591
:1034A6000100FA0720002000E00323022202120294
:1034B60012028A010200FD07CEA22402AA02A90670
:1034C600FC0582047305020572055202D2025205FA
:1034D6008A04B5E710001000FF0111011101FF0178
:1034E60011011101FF0111041004E007D7D30000F8
:1034F600FC018000400020002000FF072000200083
:10350600200020003800CBBC0000FC1F8410841073
:10351600FC1F84108410FC1F04108000101112215F
:1035260012481248E10F0000C2F500000400E87FCF
:1035360008010001003F0F2108210821882088206A
:10354600481428081400E27F0000CEA28810A812B2
:10355600A412A20AE97B08240428F62B0528E429EC
:10356600242924152413242914280C44B5E78000A3
:1035760080008000FC1F841084108410FC1F8410BF
:1035860084108410FC1F845080408040007FD7D375
:103596000000FE1F00080004000280018000FF7F7B
:1035A600800080008000800080008000A000400035
:1035B600CBBC000000000000E0FF07201804201824
:1035C60004201804201804E0FF072018042018041B
:1035D600201804201804E0FF07200004000C0080D7
:1035E600190090310E9001329801328C01228C0123
:1035F6000600FF03000000000000C2F50000000006
:10360600000008001098FF3F101000101000001076
:10361600000010003EF01F20180820180C20080C8F
:1036260020080C200804200404200404200204209E
:103636008107D8000386010004FF7F00F01F000009
:1036460000000000CEA200000010040030040610A6
:103656000402082503042503222501E03F3F30200C
:103666001110801198FF11188019144009121F0AB1
:1036760010130A10930A10510410310610310E105F
:10368600911990C030502020101800000000B5E7B6
:103696000000000008000008000008000008000004
:1036A6000800F0FF0F100804100804100804F0FFCB
:1036B60007100804100804100804100804F0FF0797
:1036C6001008041008000008200008200008200048
:1036D600083000F83F000000D7D3000000000000CB
:1036E600000000F0FF0F000006000001008000004F
:1036F6006000001800001800001810FEFF3F0018B8
:10370600000018000018000018000018000018003B
:10371600001800001800801900001E00000C0000B0
:103726000000CBBC0000000000000000000000000C
:10373600E0FFFF07E0FFFF07E0800306E0800306E7
:10374600E0800306E0800306E0FFFF07E0FFFF07D7
:10375600E0800306E0800306E0800306E0800306BF
:10376600E0FFFF07E0FFFF07000000000000000089
:1037760000000300E08C0306700C070E700C0E1E92
:10378600380C061C380C00381C0C80311C0CC0117F
:103796000C0CC00100FCFF0100FCFF000000000053
:1037A60000000000C2F5000000000000000000005C
:1037B60000007000000070F8FF3FE0F8FF3FE000F7
:1037C6000600C0010600C001060040000600000019
:1037D60006000000FE0FFE01FE0FFE01060EFE01B2
:1037E600070EC001070EC001070EC001030EC081FF
:1037F600030EC081030EC0C1010EC0C10106C0E1A7
:103806000006C0710007C079E007C031E003F0038D
:103816000000781F00003CFCFF7F1CF0FF3F080003
:10382600FE3F00000000CEA20000000000000000E5
:1038360040E0C000C060C001E060C001706CC6001E
:10384600386CC6001C6CC6001C6CE600886CE63F33
:10385600C0FDE73FC0FC670CE000300C6000300C98
:1038660070FE7F0C78FE7F0C7C007C0C6E00600E78
:1038760064FC610660FC6106608CC106608CC10751
:10388600608CC103608C8D03608CCF03608CE70372
:10389600608EF10F6007781E60061E3C60000F18F0
:1038A6006000040000000000B5E700000000000012
:1038B600000000E0000000E0000000E0000000E082
:1038C600000000E00000F8FFFF03F8FFFF0338E008
:1038D600800338E0800338E0800338E0800338E076
:1038E6008003F8FFFF03F8FFFF0338E0800338E0AA
:1038F600800338E0800338E0800338E08003F8FF77
:10390600FF03F8FFFF0338E0000038E0000038E06E
:10391600000000E0007000E0003800E0013800C060
:10392600FF3F0080FF1F00000000D7D3000000000B
:10393600000000000000000000000000E0FFFF079C
:10394600E0FFFF070000C0030000F00000003C009D
:1039560000001E00008007000080030000800100B8
:103966000080010000800100FCFFFF3FFCFFFF3FDD
:10397600008001000080010000800100008001003D
:10398600008001000080010000800100008001002D
:10399600008001000080010000C0010000F8010065
:0C39A60000F801000038000000000000E4
:105408007864EEF208EFF208ECF208EDF208EAF23E
:0354180008EBF2AC
:10541B0024FFFBEA34FFFA786BE224FF795EF31882
:10542B00E234FF19F3125A317866E2FF08E2900278
:10543B002CCFF0A3EFF0786AE2FE08E2FFC39002F4
:10544B002DE09F90022CE09E504C7864E2FF08E226
:10545B0090022ECFF0A3EFF07868E2FE08E2FFC3D4
:10546B0090022FE09F90022EE09E501A786CE2FE85
:10547B0008E2FF125B5390022FE004F070DA900207
:10548B002EE004F080D290022DE004F070A8900280
:06549B002CE004F080A0EB
:0154A10022E8
:10593600A3FEE0FCA3E0FDC37889E29DFD18E29C8E
:08594600FC788BE2FA08E2FB99
:10594E00786EEEF208EFF208EAF208EBF28D828C36
:10595E0083786EE2FA08E2FBFFAE02785DE583F231
:10596E0008E582F2125A317870E2FE08E2FF025B1D
:01597E0053D5
:10499100FBE2F58308E2F5827878E583F208E582A7
:1049A100F27884E2F58308E2F582787AE583F20809
:0349B100E582F2AA
:0D49B4007872EEF208EFF208ECF208EDF276
:1049C100E49001DCF0A3F0A3F0A3F07872E2FE081A
:1049D100E2FFC3EB9FFFEA9EA3F0A3EFF008E2FA28
:1049E10008E2FBC37879E29BFE18E29AA3F0A3CE1A
:1049F100F07872E2FF08E29001EACFF0A3EFF0A3B2
:104A0100EAF0A3EBF09001E0E0FEA3E0FFD3940015
:104A1100EE64809480400A9001E6E4F0A304F08003
:104A210021EF4E70089001E6F0A3F0801574FF901D
:104A310001E6F0A3F0C3E49FFFE49E9001E0F0A340
:104A4100EFF09001E2E0FEA3E0FFD39400EE64807A
:104A51009480400A9001E8E4F0A304F08021EF4E35
:104A610070089001E8F0A3F0801574FF9001E8F060
:104A7100A3F0C3E49FFFE49E9001E2F0A3EFF09066
:104A810001E2E0FEA3E0FF9001E0E0FCA3E0FDD342
:104A91009FEE6480F8EC6480989001E44007ECF0AC
:104AA100A3EDF08005EEF0A3EFF0E49001DAF0A3BE
:104AB100F09001E5E02401FF9001E4E03400FEC341
:104AC1009001DBE09F9001DAE09E4003024B94905D
:104AD10001EAE0FEA3E0FFA3E0FCA3E0FD787A1287
:104AE10059499001E0E0FEA3E0FF9001DDE02FF0E5
:104AF1009001DCE03EF09001E2E0FEA3E0FF9001D6
:104B0100DFE02FF09001DEE03EF09001E4E0FEA353
:104B1100E0FF9001DCE0FCA3E0FDD39FEE6480F8B0
:104B2100EC6480984020ED9FFFEC9E9001DCF0A3A7
:104B3100EFF09001E6E0FEA3E0FF9001EBE02FF043
:104B41009001EAE03EF09001E4E0FEA3E0FF900175
:104B5100DEE0FCA3E0FDD39FEE6480F8EC64809876
:104B61004020ED9FFFEC9E9001DEF0A3EFF090015D
:104B7100E8E0FEA3E0FF9001EDE02FF09001ECE012
:104B81003EF09001DBE004F070069001DAE004F001
:034B9100024AB223
:014B940022FE
:105648007880EAF208EBF2787CEEF208EFF208ECE8
:10565800F208EDF208E2FA08E2787E124991787CC5
:10566800E2FA08E2FBFFAE0208E2FC08E2FD7882FB
:10567800124992787CE2FE08E2FF7882E2FC08E2B6
:10568800FD7880E2FA08E2081249917880E2FA0887
:10569800E2FBFFAE02787EE2FC08E2FD7882E2F5EA
:1056A8008308E2F5827878E583F208E582F2788467
:1056B800E2F58308E2F582787AE583F208E582F27A
:0356C8000249B4E0
:104D15007886EEF208EFF208ECF208EDF208EBF215
:104D2500E4900230F0A3F0EBFFA3E4F0A3EFF090E2
:104D35000232E0FEA3E0FFD3900231E09FEE6480F3
:104D4500F8900230E06480984003024E86C378876D
:104D5500E29FFF18E29E125937900232E0FEA3E06F
:104D6500FF7887E22FFF18E23E9002301259379004
:104D75000230E0FEA3E0FFC37887E29FFF18E29EC2
:104D8500FEA3E0FCA3E0FD7889E22DFD18E23C12CC
:104D95005946900230E0FEA3E0FFC37887E29FFF0B
:104DA50018E29E125936900232E0FEA3E0FF7887A2
:104DB500E22FFF18E23EFE900230E0FCA3E0FD7812
:104DC50089E22DFD18E23C125946900230E0FEA31F
:104DD500E0FF7887E22FFF18E23E12593690023045
:104DE500E0FEA3E0FF7887E22FFF18E23EFEA3E096
:104DF500FCA3E0FD7889E22DFD18E23C12594690AE
:104E05000232E0FEA3E0FFC37887E29FFF18E29E2F
:104E1500FE900230E0FCA3E0FD7889E22DFD18E26A
:104E25003C125946900231E004F07006900230E0E1
:104E350004F0900232E0FCA3E0FDFFAE04123A63F9
:104E4500AA06AB07900230E0FCA3E0FDFFAE04121A
:104E55003A63EF2BFDEE3AFC788AE2F5F0A4FFD336
:104E6500ED9FE5F06480F8EC6480985003024D34C2
:104E7500900233E024FFF0900232E034FFF0024D5F
:014E850034F8
:014E86002209
:104E8700788DEEF208EFF208ECF208EDF208EBF29B
:104E970008EAF208E9F27891E2FB08E2FA08E2F997
:104EA7001239B27003024FE37898E2640C703A78D3
:104EB7008FE2FC08E2FD7894E2FF08E278A1CFF2E6
:104EC70008EFF27896E2FF08E278A3CFF208EFF254
:104ED7007898E278A5F27899E278A6F2788DE2FEE2
:104EE70008E2FF124299024FC77898E264107042B5
:104EF700788FE2FC08E2FD08E2FB08E2FA08E2F933
:104F070008E2FF08E278AECFF208EFF27896E2FF08
:104F170008E278B0CFF208EFF27898E278B2F27848
:104F270099E278B3F2788DE2FE08E2FF1244FA02C2
:104F37004FC77898E264187041788FE2FC08E2FD69
:104F470008E2FB08E2FA08E2F908E2FF08E278BBA8
:104F5700CFF208EFF27896E2FF08E278BDCFF208C9
:104F6700EFF27898E278BFF27899E278C0F2788D1C
:104F7700E2FE08E2FF123DCF80467898E264207097
:104F87005B788FE2FC08E2FD08E2FB08E2FA08E240
:104F9700F908E2FF08E278C8CFF208EFF27896E264
:104FA700FF08E278CACFF208EFF27898E278CCF2FD
:104FB7007899E278CDF2788DE2FE08E2FF1240346C
:104FC7007893E22402F218E23400F27898E2FF784C
:0D4FD7008EE22FF218E23400F2024E9D220D
:10429900789CECF208EDF208EBF208EAF208E9F290
:0742A900789AEEF208EFF233
:1042B000E49001F0F09001F7EEF0A3EFF078A5E2C2
:1042C000FF131313541FFD7C00EF54077E0060049E
:1042D0007F0180027F00EF2DFFEE3CFE78A5E2FD1E
:1042E0007C00123A639001F5EEF0A3EFF09001F339
:1042F000E4F0A37405F0E49001F1F0A3F09001F371
:10430000E0FEA3E0FF9001F1E0FCA3E0FDC39FEC21
:104310009E40030244F9789EE2FB08E2FA08E2F9C3
:104320001239B2FF90348A75F01AED123C62EC75C6
:10433000F01AA42583F583E4936F60030244E890A8
:1043400000011239CBFF9001F1A3E090348B75F09E
:104350001A123C62EC75F01AA42583F583E4936F7E
:1043600060030244E8789CE2FC08E2FD78A5E2F9EB
:10437000FF789BE22FFF18E23400CF24FFFBEF34DD
:10438000FFFAE9FF789DE22FFF18E23400CF24FF07
:10439000785EF2EF34FF18F2789AE2FE08E2FF123C
:1043A0005A31E49001EEF09001EEE0FFD39001F677
:1043B000E09F9001F5E0940050030244E8E490018E
:1043C000EFF078A6E270719001F1A3E075F01AA405
:1043D000248CF582E43434F583C083C0829001EEEE
:1043E000E0D082D0832582F582E43583F583E4939F
:1043F000FD7C009001EFE0FF74017E00A8070880BB
:1044000005C333CE33CED8F9FFEE5CFEEF5D4E60D0
:104410000478A1800278A3E2FE08E2FF125B5390C9
:1044200001F0E004F078A5E2FFE08FF084E5F060B1
:10443000030244D0F00244DF9001F1A3E075F01ACA
:10444000A4248CF582E43434F583C083C0829001C7
:10445000EEE0D082D0832582F582E43583F583E4D3
:1044600093FD7C009001EFE0FF74017E00A8070837
:104470008005C333CE33CED8F9FFEE5CFEEF5D4E40
:104480006012789AE2FE08E2FF08E2FC08E2FD789A
:10449000A1125949789BE22401F218E23400F2900B
:1044A00001F7E0FEA3E0FFC308E29FFD18E29EFCD7
:1044B00078A5E27A00B50518EAB50414789AEEF208
:1044C00008EFF2789DE22401F218E23400F2800F46
:1044D0009001EFE004F0E0C3940850030243C2905F
:1044E00001EEE004F00243A79001F2E004F0700650
:0944F0009001F1E004F00242FD2C
:0144F90022A0
:1044FA0078A9ECF208EDF208EBF208EAF208E9F220
:07450A0078A7EEF208EFF2C2
:10451100E49001FBF0900202EEF0A3EFF078B2E23A
:10452100FF131313541FFD7C00EF54077E0060043A
:104531007F0180027F00EF2DFFEE3CFE78B2E2FDAD
:104541007C00123A63900200EEF0A3EFF09001FEBE
:10455100E4F0A37405F0E49001FCF0A3F09001FEF7
:10456100E0FEA3E0FF9001FCE0FCA3E0FDC39FECB3
:104571009E400302475A78ABE2FB08E2FA08E2F9EF
:104581001239B2FF90350C75F022ED123C62EC75D8
:10459100F022A42583F583E4936F600302474990D9
:1045A10000011239CBFF9001FCA3E090350D75F0AD
:1045B10022123C62EC75F022A42583F583E4936F0B
:1045C100600302474978A9E2FC08E2FD78B2E2F90A
:1045D100FF78A8E22FFF18E23400CF24FFFBEF346D
:1045E100FFFAE9FF78AAE22FFF18E23400CF24FF97
:1045F100785EF2EF34FF18F278A7E2FE08E2FF12CC
:104601005A31E49001F9F09001F9E0FFD3900201F1
:10461100E09F900200E094005003024749E49001BA
:10462100FAF078B3E270719001FCA3E075F022A476
:10463100240EF582E43435F583C083C0829001F9FC
:10464100E0D082D0832582F582E43583F583E4933B
:10465100FD7C009001FAE0FF74017E00A80708804C
:1046610005C333CE33CED8F9FFEE5CFEEF5D4E606D
:104671000478AE800278B0E2FE08E2FF125B53904C
:1046810001FBE004F078B2E2FFE08FF084E5F06036
:1046910003024731F00247409001FCA3E075F0228C
:1046A100A4240EF582E43435F583C083C0829001E1
:1046B100F9E0D082D0832582F582E43583F583E465
:1046C10093FD7C009001FAE0FF74017E00A80708C9
:1046D1008005C333CE33CED8F9FFEE5CFEEF5D4EDD
:1046E100601278A7E2FE08E2FF08E2FC08E2FD782A
:1046F100AE12594978A8E22401F218E23400F2908E
:104701000202E0FEA3E0FFC308E29FFD18E29EFC67
:1047110078B2E27A00B50518EAB5041478A7EEF28A
:1047210008EFF278AAE22401F218E23400F2800FD5
:104731009001FAE004F0E0C394085003024623908C
:1047410001F9E004F00246089001FDE004F0700672
:094751009001FCE004F002455E59
:01475A00223C
:103DCF0078B6ECF208EDF208EBF208EAF208E9F245
:073DDF0078B4EEF208EFF2E8
:103DE600E4900206F090020DEEF0A3EFF078BFE249
:103DF600FF131313541FFD7C00EF54077E0060046D
:103E06007F0180027F00EF2DFFEE3CFE78BFE2FDD2
:103E16007C00123A6390020BEEF0A3EFF0900209D9
:103E2600E4F0A37405F0E4900207F0A3F090020911
:103E3600E0FEA3E0FF900207E0FCA3E0FDC39FECD9
:103E46009E400302403378B8E2FB08E2FA08E2F942
:103E56001239B2FF9035B675F04AED123C62EC7538
:103E6600F04AA42583F583E4936F60030240229011
:103E760000011239CBFF900207A3E09035B775F029
:103E86004A123C62EC75F04AA42583F583E4936FED
:103E9600600302402278B6E2FC08E2FD78BFE2F950
:103EA600FF78B5E22FFF18E23400CF24FFFBEF3492
:103EB600FFFAE9FF78B7E22FFF18E23400CF24FFBC
:103EC600785EF2EF34FF18F278B4E2FE08E2FF12F1
:103ED6005A31E4900204F0900204E0FFD390020C01
:103EE600E09F90020BE094005003024022E490020F
:103EF60005F0900205E0FFC39408400302401978DC
:103F0600C0E2706D900204E0FE900207E0FCA3E0C0
:103F16009035B875F04A123C62EC75F04AA42583D8
:103F2600F583E5822EF582E43583F583E493FD7C03
:103F36000074017E00A807088005C333CE33CED8AF
:103F4600F9FFEE5CFEEF5D4E600478BB800278BD43
:103F5600E2FE08E2FF125B53900206E004F078BF2F
:103F6600E2FFE08FF084E5F06003024010F00240CB
:103F760019900204E0FF900207E0FCA3E09035B838
:103F860075F04A123C62EC75F04AA42583F583E588
:103F9600822FF582E43583F583E493FD7C0090025D
:103FA60005E0FF74017E00A807088005C333CE3301
:103FB600CED8F9FFEE5CFEEF5D4E601278B4E2FEFD
:103FC60008E2FF08E2FC08E2FD78BB12594978B521
:103FD600E22401F218E23400F290020DE0FEA3E0C2
:103FE600FFC308E29FFD18E29EFC78BFE27A00B5A7
:103FF6000518EAB5041478B4EEF208EFF278B7E2E1
:104006002401F218E23400F28009900205E004F07F
:10401600023EF8900204E004F0023EDD900208E061
:0D40260004F07006900207E004F0023E3343
:01403300226A
:1040340078C3ECF208EDF208EBF208EAF208E9F2D0
:0740440078C1EEF208EFF273
:10404B00E4900211F0900218EEF0A3EFF078CCE2BE
:10405B00FF131313541FFD7C00EF54077E00600405
:10406B007F0180027F00EF2DFFEE3CFE78CCE2FD5E
:10407B007C00123A63900216EEF0A3EFF09002145C
:10408B00E4F0A37405F0E4900212F0A3F090021494
:10409B00E0FEA3E0FF900212E0FCA3E0FDC39FEC67
:1040AB009E400302429878C5E2FB08E2FA08E2F967
:1040BB001239B2FF90372875F082ED123C62EC7525
:1040CB00F082A42583F583E4936F6003024287900B
:1040DB0000011239CBFF900212A3E090372975F043
:1040EB0082123C62EC75F082A42583F583E4936F16
:1040FB00600302428778C3E2FC08E2FD78CCE2F968
:10410B00FF78C2E22FFF18E23400CF24FFFBEF341D
:10411B00FFFAE9FF78C4E22FFF18E23400CF24FF47
:10412B00785EF2EF34FF18F278C1E2FE08E2FF127C
:10413B005A31E490020FF090020FE0FFD390021778
:10414B00E09F900216E094005003024287E4900235
:10415B0010F0900210E0FFC39408400302427E78F7
:10416B00CDE2706D90020FE0FE900212E0FCA3E036
:10417B0090372A75F082123C62EC75F082A425838D
:10418B00F583E5822EF582E43583F583E493FD7C9C
:10419B000074017E00A807088005C333CE33CED848
:1041AB00F9FFEE5CFEEF5D4E600478C8800278CAC2
:1041BB00E2FE08E2FF125B53900211E004F078CCB0
:1041CB00E2FFE08FF084E5F06003024275F00242FB
:1041DB007E90020FE0FF900212E0FCA3E090372AE2
:1041EB0075F082123C62EC75F082A42583F583E5B1
:1041FB00822FF582E43583F583E493FD7C009002F6
:10420B0010E0FF74017E00A807088005C333CE338E
:10421B00CED8F9FFEE5CFEEF5D4E601278C1E2FE88
:10422B0008E2FF08E2FC08E2FD78C812594978C29F
:10423B00E22401F218E23400F2900218E0FEA3E04F
:10424B00FFC308E29FFD18E29EFC78CCE27A00B532
:10425B000518EAB5041478C1EEF208EFF278C4E25F
:10426B002401F218E23400F28009900210E004F00D
:10427B0002415D90020FE004F0024142900213E014
:0D428B0004F07006900212E004F00240986A
:014298002203
:10475B0078D0ECF208EDF208EBF278CEEEF208EF3F
:01476B00F25B
:10476C00E490021DF0900222EEF0A3EFF078D7E275
:10477C00F9C31390021BF0E0FF131313541FFD7CBD
:10478C0000EF54077E0060047F0180027F00EF2D54
:10479C00FFEE3CFEE9FD7C00123A63900220EEF045
:1047AC00A3EFF078D2E224E0F278D0E2FC08E2FD4C
:1047BC0090021BE0FF78CFE22FFF18E23400CF24E9
:1047CC00FFFBEF34FFFAE9FF78D1E22FFF18E23458
:1047DC0000CF24FF785EF2EF34FF18F278CEE2FEC1
:1047EC0008E2FF125A31E490021EF0A3F09002206E
:1047FC00E0FEA3E0FF90021EE0FCA3E0FDC39FECF3
:10480C009E400302499078D7E2F9B40C1B78D2E2AF
:10481C0075F00CA42496F582E5F03400F583E5825E
:10482C002DF582E5833C8077E9B4102390021EE0DD
:10483C00FEA3E0FF78D2E275F010A4240AF582E51D
:10484C00F03405F583E5822FF582E5833E8050E94F
:10485C00B4182390021EE0FEA3E0FF78D2E275F0BC
:10486C0030A424FAF582E5F0340AF583E5822FF5BD
:10487C0082E5833E8029E96420600302499090021E
:10488C001EE0FEA3E0FF78D2E275F040A424CAF546
:10489C0082E5F0341CF583E5822FF582E5833EF545
:1048AC0083E49390021AF0E490021CF090021CE056
:1048BC00FFC39408400302497F78D8E27040047E1D
:1048CC0000A807088005C333CE33CED8F9FF900279
:1048DC001AE0FDEF5D600478D3800278D5E2FE0823
:1048EC00E2FF125B5390021DE004F090021BE0FF0C
:1048FC0090021DE08FF084E5F0706FF080759002EF
:10490C001CE0FF74017E00A807088005C333CE337A
:10491C00CED8F9FF90021AE0FDEF5D601278CEE27E
:10492C00FE08E2FF08E2FC08E2FD78D31259497850
:10493C00CFE22401F218E23400F2900222E0FEA34E
:10494C00E0FFC308E29FFD18E29EFC90021BE07A98
:10495C0000B50516EAB50412EEF208EFF278D1E2D2
:10496C002401F218E23400F2800990021CE004F0F9
:10497C000248B890021FE004F0700690021EE0049A
:04498C00F00247F9F5
:014990002204
:1055C40078D9EEF208EFF208ECF208EDF208EBF20B
:1055D40008EAF208E9F278DDE2FB08E2FA08E2F907
:1055E4001239B2FB605D78D9E2FE08E2FF08E2FC02
:1055F40008E2FD78E0E2F58308E2F58278D3E583FA
:10560400F208E582F278E2E2F58308E2F58278D5E1
:10561400E583F208E582F278E4E278D7F278E5E20D
:1056240078D8F212475B78E4E2C313FF78DAE22F0A
:10563400F218E23400F278DFE22401F218E23400D6
:04564400F28093223B
:0A5884004202340000420236000127
:10000E00438E805389F0758AB4758CFEC28DD28C66
:05001E00D2A9D2AF22BF
:03000B0002536439
:10536400C0E0C0F0C083C082C0D075D000C000C00F
:1053740001C002C003C004C005C006C007900235C6
:10538400E004F07006900234E004F0900234E0FE91
:10539400A3E0FFC39464EE94005015A3E0FCA3E0E3
:1053A400FDC3EF9DEE9C5004D2B5800BC2B58007BF
:1053B400900234E4F0A3F07B017A0079F1C002900A
:1053C4000148A3E0FAA3E0F5828A83D002123D1BD0
:1053D4007B017A01794BC0029001A2A3E0FAA3E019
:1053E400F5828A83D002123D1BD007D006D005D0A7
:1053F40004D003D002D001D000D0D0D082D083D04A
:04540400F0D0E032D2
:030000000255386E
:0C553800787FE4F6D8FD75810802557FED
:1039B200BB010689828A83E0225002E722BBFE0213
:0939C200E32289828A83E4932246
:1039CB00BB010CE58229F582E5833AF583E02250B1
:1039DB0006E92582F8E622BBFE06E92582F8E222FB
:0D39EB00E58229F582E5833AF583E4932215
:1039F800BB0111F8E58229F582E5833AF583E0C831
:103A080028F0E8225009C58229F8C58226C622BBBB
:103A1800FE0DC58229F8E2C5822582F2E58222EAF6
:073A28002583F583E99322D9
:103A2F00BB010689828A83F0225002F722BBFE0176
:023A3F00F32270
:103A4100F8BB010DE58229F582E5833AF583E8F0BB
:103A5100225006E92582C8F622BBFE05E92582C867
:023A6100F2224F
:103A6300EF8DF0A4A8F0CF8CF0A428CE8DF0A42E77
:023A7300FE2231
:103A7500BB0110E58229F582E5833AF583E0F5F08F
:103A8500A3E0225009E92582F886F008E622BBFE6C
:103A95000AE92582F8E2F5F008E222E5832AF583B2
:083AA500E993F5F0A3E9932277
:103AAD00BB010DC58229C582C5833AC583023D1D63
:103ABD005011C58229F808E5F026F618F5F0E582D3
:103ACD0036F622BBFE11C58229F808E225F0F5F085
:103ADD00F218E23582F222F8E58229F582E5832A91
:0D3AED00F58374019325F0F5F0E493382281
:103AFA00F8BB0111E58229F582E5833AF583E8F0FE
:103B0A00E5F0A3F0225009E92582C8F608A6F022BA
:0D3B1A00BBFE09E92582C8F2E5F008F222A1
:103B270075F008758200EF2FFFEE33FECD33CDCC55
:103B370033CCC58233C5829BED9AEC99E5829840D8
:103B47000CF582EE9BFEED9AFDEC99FC0FD5F0D6B5
:103B5700E4CEFBE4CDFAE4CCF9A88222B800C1B9DF
:103B67000059BA002DEC8BF084CFCECDFCE5F0CB1D
:103B7700F97818EF2FFFEE33FEED33FDEC33FCEB56
:103B870033FB10D703994004EB99FB0FD8E5E4F911
:103B9700FA227818EF2FFFEE33FEED33FDEC33FCFE
:103BA700C933C910D7059BE99A4007EC9BFCE99AF2
:103BB700F90FD8E0E4C9FAE4CCFB2275F010EF2F37
:103BC700FFEE33FEED33FDCC33CCC833C810D70737
:103BD7009BEC9AE899400AED9BFDEC9AFCE899F872
:0E3BE7000FD5F0DAE4CDFBE4CCFAE4C8F92205
:103BF500BB010DE58229F582E5833AF583023D7522
:103C05005007E92582F8023D69BBFE07E92582F8E0
:043C1500023D8122C9
:103C1900BB010DE58229F582E5833AF583023D4032
:103C29005007E92582F8023D33BBFE07E92582F8F2
:103C3900023D4CE58229F582E5833AF583023D5937
:103C4900D083D082E493F208740193F2087402934A
:093C5900F208740393F274047381
:0C3C6200A42582F582E5F03583F583226D
:103C6E00BB010789828A83023D9F5005E9F8023D18
:103C7E008DBBFE05E9F8023DB189828A83023DC300
