:0900000002074BEF24FF92A1223C
:10000B0002060D438E805389F0758AB4758CFEC23F
:10001B008DD28CD2A9D2AF22020026C0E0C0F0C094
:10002B0083C082C0D075D000C000C001C002C00325
:10003B00C004C005C006C007C28CC2A9309907C254
:10004B0099900046E4F030981DC2987B017A0079B4
:10005B0000C002900054A3E0FAA3E0F5828A83D09B
:10006B0002AD991203E6D2A9D28CD007D006D005E7
:10007B00D004D003D002D001D000D0D0D082D08316
:05008B00D0F0D0E032CE
:1000930002084CBB010689828A83E0225002E722D0
:1000A300BBFE02E32289828A83E49322BB010CE52F
:1000B3008229F582E5833AF583E0225006E9258219
:1000C300F8E622BBFE06E92582F8E222E58229F55D
:1000D30082E5833AF583E49322BB0111F8E5822993
:1000E300F582E5833AF583E0C828F0E8225009C594
:1000F3008229F8C58226C622BBFE0DC58229F8E2F5
:10010300C5822582F2E58222EA2583F583E99322DB
:10011300BB010689828A83F0225002F722BBFE01CB
:10012300F322F8BB010DE58229F582E5833AF583D5
:10013300E8F0225006E92582C8F622BBFE05E92530
:1001430082C8F222EF8DF0A4A8F0CF8CF0A428CEC1
:100153008DF0A42EFE22BB0110E58229F582E583F2
:100163003AF583E0F5F0A3E0225009E92582F88609
:10017300F008E622BBFE0AE92582F8E2F5F008E280
:1001830022E5832AF583E993F5F0A3E99322BB01E2
:100193000DC58229C582C5833AC5830203E8501180
:1001A300C58229F808E5F026F618F5F0E58236F65B
:1001B30022BBFE11C58229F808E225F0F5F0F218FA
:1001C300E23582F222F8E58229F582E5832AF58376
:1001D30074019325F0F5F0E4933822F8BB0111E59F
:1001E3008229F582E5833AF583E8F0E5F0A3F0226E
:1001F3005009E92582C8F608A6F022BBFE09E925C5
:1002030082C8F2E5F008F22275F008758200EF2F3C
:10021300FFEE33FECD33CDCC33CCC58233C5829BC9
:10022300ED9AEC99E58298400CF582EE9BFEED9AEF
:10023300FDEC99FC0FD5F0D6E4CEFBE4CDFAE4CC8B
:10024300F9A88222B800C1B90059BA002DEC8BF08D
:1002530084CFCECDFCE5F0CBF97818EF2FFFEE334A
:10026300FEED33FDEC33FCEB33FB10D70399400475
:10027300EB99FB0FD8E5E4F9FA227818EF2FFFEE9C
:1002830033FEED33FDEC33FCC933C910D7059BE9CD
:100293009A4007EC9BFCE99AF90FD8E0E4C9FAE429
:1002A300CCFB2275F010EF2FFFEE33FEED33FDCCC8
:1002B30033CCC833C810D7079BEC9AE899400AEDB2
:1002C3009BFDEC9AFCE899F80FD5F0DAE4CDFBE45A
:1002D300CCFAE4C8F922BB010DE58229F582E58356
:1002E3003AF5830204405007E92582F8020434BB3F
:1002F300FE07E92582F802044C22BB010DE58229A1
:10030300F582E5833AF58302040B5007E92582F869
:100313000203FEBBFE07E92582F8020417E58229E2
:10032300F582E5833AF583020424A42582F582E568
:10033300F03583F58322BB010789828A8302046A2D
:100343005005E9F8020458BBFE05E9F802047C896C
:10035300828A8302048EBB010DE58229F582E5833F
:100363003AF58302046A5007E92582F8020458BB70
:10037300FE07E92582F802047CE58229F582E583FC
:100383003AF58302048EBB0120E58229F582E583D9
:100393003AF583D0F0D0E0F8D0E0F9D0E0FAD0E03D
:1003A300FBE8C0E0C0F00204735018E92582F8D0DE
:1003B30083D082D0E0F9D0E0FAD0E0FBC082C083E2
:1003C300020461BBFE18E92582F8D083D082D0E015
:1003D300F9D0E0FAD0E0FBC082C083020485228A10
:1003E300838982E473C5F0F8A3E028F0C5F0F8E54B
:1003F30082158270021583E038F022E6FB08E6F9E5
:1004030008E6FA08E6CBF822E0F8A3E0F9A3E0FA5D
:10041300A3E0FB22E2FB08E2F908E2FA08E2CBF8E8
:1004230022E493F8740193F9740293FA740393FB2F
:1004330022ECF608EDF608EEF608EFF622ECF0A350
:10044300EDF0A3EEF0A3EFF022ECF208EDF208EEEC
:10045300F208EFF222E6FB08E6FA08E6F922EBF6E9
:1004630008EAF608E9F622E0FBA3E0FAA3E0F922A2
:10047300EBF0A3EAF0A3E9F022E2FB08E2FA08E2D8
:10048300F922EBF208EAF208E9F222E493FB7401A1
:1004930093FA740293F9228B4F8A508951ED12011A
:1004A30013AB4FAA50A951900041E41201259000CB
:1004B30042E4120125900043E4120125900044E434
:1004C300F5F01201DEAF56AE55AD54AC5390004774
:1004D3001202D97BFF7A0979CCC003C002C001ABF9
:1004E3004FAA50A9519000541203897BFF7A0979CE
:1004F30017C003C002C001AB4FAA50A95190004ED0
:100503001203897BFF7A097999C003C002C001AB4A
:100513004FAA50A95190004B1203897BFF7A0779A8
:10052300D7C003C002C001AB4FAA50A951900051DC
:100533001203897BFF7A09795FC003C002C001AB54
:100543004FAA50A951900057120389AB4FAA50A943
:10055300510205578B578A5889599000471202FD5B
:100563007F007E407DFA7C01120247E47B04FAF9A6
:10057300F8120247C3E49FFFE49E9000EDF0A3EF5F
:10058300F0AB57AA58A95912009624FE602A1460AA
:100593004414605B2403706F759850438E40538EF0
:1005A300FE53890F9000EDE0FEA3E0F58BEEF58D91
:1005B300C2ABD28ED2AC804F439A10438E049000CC
:1005C300EDE0FEA3E0F5D7EEF5D6438E1053AFFB77
:1005D30043AF01803243AC509000EDE0FEA3E0F561
:1005E300D5EEF5D443D10A53AFDF43AF08801843A8
:1005F30084509000EDE0FEA3E0F5D3EEF5D243D1B5
:10060300A053AFBF43AF10D2AF22C0E0C0F0C0834E
:10061300C082C0D075D000C000C001C002C003C0FA
:1006230004C005C006C0079000EAE004F07006901D
:1006330000E9E004F09000E9E0FEA3E0FFC3946466
:10064300EE94005015A3E0FCA3E0FDC3EF9DEE9CE8
:100653005004D2B5800BC2B580079000E9E4F0A343
:10066300F07B017A007900C002900057A3E0FAA35F
:10067300E0F5828A83D0021203E67B017A00795A7D
:10068300C0029000B1A3E0FAA3E0F5828A83D0020E
:100693001203E6D007D006D005D004D003D002D091
:1006A30001D000D0D0D082D083D0F0D0E032120974
:1006B300F97B017A0079007556007555C2755401AE
:1006C3007553007D0112049A7B017A00795AE4F58F
:1006D300567555E1F554F5537D0412049A12000E34
:1006E3009000D4A3E0FAA3E0F5828A83E4FFFE122C
:1006F30003E69000D7A3E0FAA3E0F5828A83E4FF40
:10070300FE1203E6900043E06030E4F0900011E055
:10071300FF7E009000EBEEF0A3EFF07B017A00790F
:1007230000C002FD90004BA3E0FAA3E0F5828A83A8
:10073300D0021203E6E4900041F090009DE060C413
:10074300E4F090009BF080BC787FE4F6D8FD7581DF
:100753005A0207920206B1E493A3F8E493A3400379
:10076300F68001F208DFF48029E493A3F854072408
:100773000CC8C333C4540F4420C8834004F45680C8
:100783000146F6DFE4800B0102040810204080904C
:1007930008B4E47E019360BCA3FF543F30E50954E1
:1007A3001FFEE493A360010ECF54C025E060A84070
:1007B300B8E493A3FAE493A3F8E493A3C8C582C867
:1007C300CAC583CAF0A3C8C582C8CAC583CADFE93C
:1007D300DEE780BE155A155A155AA85AA60308A66D
:1007E3000208A601155AA85AE4F6F6E55A2404F8B5
:1007F300860308E6FA08E6F99000411200AFFFA865
:100803005AE6FEC39F503B08860308E6FA08E6F95A
:10081300C003C002C001E55A2404F8860308E6FABF
:1008230008E62411F9E43AFAEE7E0029F9EE3AFAE1
:10083300120096FDD001D002D003120999A85A06DE
:1008430080A9E55A2407F55A22C0E0C0F0C083C04E
:1008530082C0D075D000C000C001C002C003C00474
:10086300C005C006C007E58430E1085384FD90004D
:10087300A0E4F0E58430E01E5384FE7B017A007926
:100883005AC0029000AEA3E0FAA3E0F5828A83D0B7
:1008930002AD851203E6D007D006D005D004D003FD
:1008A300D002D001D000D0D0D082D083D0F0D0E01D
:1008B3003220440B01FF0A1B02FF0A2803FF0A32FE
:1008C30004FF0A3F05FF0A4F06FF0A5F07FF0A6C92
:1008D30008FF0A7909FF0A8910FF0A9611FF0AA384
:1008E30012FF0AB01FFF0ABD22FF0ACD26FF0ADA54
:1008F30027FF0AE729FF0AF7030801005A4900D432
:10090300FF0003FF0A0FFF0A154200E9000042003F
:10091300EB000100155A155A155AA85AA60308A642
:100923000208A601E55A2403F8860308E6FA08E656
:10093300F9120096FD601EA85A860308E6FA08E637
:10094300F9120999E55A2403F80808740126F618E0
:10095300E436F680CFE55A2406F55A229000421277
:1009630000AF6031900044E475F0011201919000F2
:1009730044120159D3942CE5F0940140189000439C
:100983007401120125900044E4F5F01201DE900099
:1009930042E412012522C28C12009624FE600E143A
:1009A300600F1460102403700E8D99800A8D9B8054
:1009B300068DAD80028D859000461200AF70F890D1
:1009C300004604120125D28C2290004274011201C8
:1009D30025900044E4F5F01201DE90004174011209
:1009E30000DCFF7E00E92411F9E43AFAE92FF9EE7D
:1009F3003AFAED020113E4F594F593F596F595F5BE
:100A0300B2F5B1F592F591F5CAF5C922EF24FF923B
:100A1300A022EF24FF92C022E695B0E68DAEE994C2
:100A230099E8AFAF00E697A0E6898BE68C8700E5EF
:100A3300BD95E585A5E5A4B1E8B4A500E68C87E7F7
:100A4300BAB9E5B9B2E68896E6B7A100E68C87E7BE
:100A5300BAB9E6B9BFE68896E7B38A00E68C87E7BA
:100A6300BAB9E8BF87E4B9B100E789B9E5BE81E562
:100A7300A4AAE5B09100E68C87E7BAB9E4B88DE59E
:100A83008CB9E9858D00E9858DE5AFB9E5A4B1E8B9
:100A9300B4A500E588A0E999A4E5A4B1E8B4A5004C
:100AA300E6B885E7A9BAE5A4B1E8B4A500E4BC912A
:100AB300E79CA0E5A4B1E8B4A500E68C87E7BAB942
:100AC300E5BA93E5B7B2E6BBA100E68C87E7BAB90E
:100AD300E99D9EE7A9BA00E68C87E7BAB9E8B6852F
:100AE300E697B600E68C87E7BAB9E5B7B2E5AD9805
:100AF300E59CA800E4BCA0E6849FE599A8E587BA35
:100B0300E9949900EF01FFFFFFFF000001000831A6
:100B1300000003520100083203FFFF000601000733
:100B23000C000000010100031D0100030D0100037F
:100B330030010003330100033601000335010004D3
:020B430034007C
:00000001FF
